:020000040800F2
:1000000000500020A12600085D2500086125000899
:1000100065250008692500086D250008000000001E
:100020000000000000000000000000007125000832
:100030007525000800000000792500087D250008CE
:10004000E9260008E9260008E9260008E926000854
:10005000E9260008E926000881250008E9260008AD
:10006000E9260008E9260008E9260008E926000834
:10007000E9260008E926000889250008E926000885
:10008000E9260008E9260008E9260008E926000814
:1000900095250008E9260008E9260008E926000859
:1000A000A1250008AD250008E9260008E92600087A
:1000B000E9260008E9260008E9260008E9260008E4
:1000C000E9260008E9260008E9260008E9260008D4
:1000D000E9260008B9250008C5250008D125000833
:1000E000E9260008E9260008E926000800000000CB
:1000F0000000000000000000000000000000000000
:0C01000000000000000000005FF808F1A3
:1001100010B5054C237833B9044B13B10448AFF341
:1001200000800123237010BD8C020020000000001D
:10013000288E000808B5034B1BB103490348AFF3F1
:10014000008008BD0000000090020020288E0008FA
:10015000034613F8012B002AFBD1181A0138704707
:1001600010F8012B11F8013B012A28BF9A42F7D061
:10017000D01A70474FF0FF0C1CEAD0521EBF1CEA89
:10018000D15392EA0C0F93EA0C0F6FD01A4480EA15
:10019000010C400218BF5FEA41211ED04FF00063FE
:1001A00043EA501043EA5111A0FB01310CF000402A
:1001B000B1F5000F3EBF490041EAD3715B0040EA50
:1001C000010062F17F02FD2A1DD8B3F1004F40EB20
:1001D000C25008BF20F00100704790F0000F0CF0F3
:1001E000004C08BF49024CEA502040EA51207F3AB7
:1001F000C2BFD2F1FF0340EAC250704740F4000092
:100200004FF00003013A5DDC12F1190FDCBF00F082
:1002100000407047C2F10002410021FA02F1C2F130
:10022000200200FA02FC5FEA310040F1000053EACC
:100230004C0308BF20EADC70704792F0000F00F01A
:10024000004C02BF400010F4000F013AF9D040EA20
:100250000C0093F0000F01F0004C02BF490011F4B4
:10026000000F013BF9D041EA0C018FE70CEAD153B2
:1002700092EA0C0F18BF93EA0C0F0AD030F0004C32
:1002800018BF31F0004CD8D180EA010000F00040E6
:10029000704790F0000F17BF90F0004F084691F0A4
:1002A000000F91F0004F14D092EA0C0F01D14202DE
:1002B0000FD193EA0C0F03D14B0218BF084608D1A7
:1002C00080EA010000F0004040F0FE4040F40000F1
:1002D000704740F0FE4040F44000704781F000411C
:1002E00002E000BF83F0004330B54FEA41044FEA1B
:1002F000430594EA050F08BF90EA020F1FBF54EAB6
:10030000000C55EA020C7FEA645C7FEA655C00F051
:10031000E2804FEA5454D4EB5555B8BF6D420CDD22
:100320002C4480EA020281EA030382EA000083EAA5
:10033000010180EA020281EA0303362D88BF30BD45
:1003400011F0004F4FEA01314FF4801C4CEA11319B
:1003500002D0404261EB410113F0004F4FEA0333FA
:100360004CEA133302D0524263EB430394EA050F85
:1003700000F0A780A4F10104D5F1200E0DDB02FAF4
:100380000EFC22FA05F2801841F1000103FA0EF288
:10039000801843FA05F359410EE0A5F120050EF14E
:1003A000200E012A03FA0EFC28BF4CF0020C43FA7F
:1003B00005F3C01851EBE37101F0004507D54FF08C
:1003C000000EDCF1000C7EEB00006EEB0101B1F5DC
:1003D000801F1BD3B1F5001F0CD349085FEA300022
:1003E0004FEA3C0C04F101044FEA445212F5800F2D
:1003F00080F09A80BCF1004F08BF5FEA500C50F1CA
:10040000000041EB045141EA050130BD5FEA4C0CAC
:10041000404141EB0101013C28BFB1F5801FE9D209
:1004200091F0000F04BF01460020B1FA81F308BF2C
:100430002033A3F10B03B3F120020CDA0C3208DDF8
:1004400002F1140CC2F10C0201FA0CF021FA02F1D3
:100450000CE002F11402D8BFC2F1200C01FA02F143
:1004600020FA0CFCDCBF41EA0C019040E41AA2BF68
:1004700001EB0451294330BD6FEA04041F3C1CDA30
:100480000C340EDC04F11404C4F1200220FA04F050
:1004900001FA02F340EA030021FA04F345EA0301FA
:1004A00030BDC4F10C04C4F1200220FA02F001FABC
:1004B00004F340EA0300294630BD21FA04F029463E
:1004C00030BD94F0000F83F4801306BF81F48011D7
:1004D0000134013D4EE77FEA645C18BF7FEA655C4A
:1004E00029D094EA050F08BF90EA020F05D054EA1C
:1004F000000C04BF1946104630BD91EA030F1EBF21
:100500000021002030BD5FEA545C05D14000494124
:1005100028BF41F0004130BD14F580043CBF01F517
:10052000801130BD01F0004545F0FE4141F47001FD
:100530004FF0000030BD7FEA645C1ABF19461046D8
:100540007FEA655C1CBF0B46024650EA013406BFD9
:1005500052EA033591EA030F41F4002130BD00BF98
:1005600090F0000F04BF0021704730B54FF4806455
:1005700004F132044FF000054FF0000150E700BFD6
:1005800090F0000F04BF0021704730B54FF4806435
:1005900004F1320410F0004548BF40424FF0000122
:1005A0003EE700BF42004FEAE2014FEA31014FEA65
:1005B00002701FBF12F07F4393F07F4F81F06051B4
:1005C000704732F07F4208BF704793F07F4F04BFFF
:1005D00041F40021704730B54FF4607401F00045DC
:1005E00021F000411CE700BF50EA010208BF70473C
:1005F00030B54FF000050AE050EA010208BF70472D
:1006000030B511F0004502D5404261EB41014FF495
:10061000806404F132045FEA915C3FF4D8AE4FF09D
:1006200003025FEADC0C18BF03325FEADC0C18BF80
:10063000033202EBDC02C2F1200300FA03FC20FAD1
:1006400002F001FA03FE40EA0E0021FA02F114441E
:10065000BDE600BF70B54FF0FF0C4CF4E06C1CEA37
:1006600011541DBF1CEA135594EA0C0F95EA0C0FA8
:1006700000F0DEF82C4481EA030621EA4C5123EA1B
:100680004C5350EA013518BF52EA033541F480114A
:1006900043F4801338D0A0FB02CE4FF00005E1FBFD
:1006A00002E506F00042E0FB03E54FF00006E1FB47
:1006B00003569CF0000F18BF4EF0010EA4F1FF048A
:1006C000B6F5007F64F5407404D25FEA4E0E6D41CA
:1006D00046EB060642EAC62141EA55514FEAC520DB
:1006E00040EA5E504FEACE2EB4F1FD0C88BFBCF557
:1006F000E06F1ED8BEF1004F08BF5FEA500E50F108
:10070000000041EB045170BD06F0004646EA0101CD
:1007100040EA020081EA0301B4EB5C04C2BFD4EBFF
:100720000C0541EA045170BD41F480114FF0000EF8
:10073000013C00F3AB8014F1360FDEBF002001F066
:10074000004170BDC4F10004203C35DA0C341BDCE0
:1007500004F11404C4F1200500FA05F320FA04F0B2
:1007600001FA05F240EA020001F0004221F00041E6
:1007700010EBD37021FA04F642EB06015EEA430E59
:1007800008BF20EAD37070BDC4F10C04C4F1200589
:1007900000FA04F320FA05F001FA04F240EA02003C
:1007A00001F0004110EBD37041F100015EEA430E0D
:1007B00008BF20EAD37070BDC4F1200500FA05F22D
:1007C0004EEA020E20FA04F301FA05F243EA0203AC
:1007D00021FA04F001F0004121FA04F220EA0200BB
:1007E00000EBD3705EEA430E08BF20EAD37070BD01
:1007F00094F0000F0FD101F00046400041EB0101E1
:1008000011F4801F08BF013CF7D041EA060195F0C2
:10081000000F18BF704703F00046520043EB03037C
:1008200013F4801F08BF013DF7D043EA0603704769
:1008300094EA0C0F0CEA135518BF95EA0C0F0CD074
:1008400050EA410618BF52EA4306D1D181EA0301BA
:1008500001F000414FF0000070BD50EA410606BFB4
:100860001046194652EA430619D094EA0C0F02D1F9
:1008700050EA013613D195EA0C0F05D152EA03363E
:100880001CBF104619460AD181EA030101F000415C
:1008900041F0FE4141F470014FF0000070BD41F0A5
:1008A000FE4141F4780170BD70B54FF0FF0C4CF47F
:1008B000E06C1CEA11541DBF1CEA135594EA0C0F9E
:1008C00095EA0C0F00F0A7F8A4EB050481EA030EEB
:1008D00052EA03354FEA013100F088804FEA0333D2
:1008E0004FF0805545EA131343EA12634FEA0222A0
:1008F00045EA111545EA10654FEA00260EF0004161
:100900009D4208BF964244F1FD0404F5407402D2B2
:100910005B084FEA3202B61A65EB03055B084FEA43
:1009200032024FF480104FF4002CB6EB020E75EB40
:10093000030E22BFB61A754640EA0C005B084FEA68
:100940003202B6EB020E75EB030E22BFB61A7546E5
:1009500040EA5C005B084FEA3202B6EB020E75EB30
:10096000030E22BFB61A754640EA9C005B084FEAA8
:100970003202B6EB020E75EB030E22BFB61A7546B5
:1009800040EADC0055EA060E18D04FEA051545EAA4
:1009900016754FEA06164FEAC30343EA52734FEA4D
:1009A000C2025FEA1C1CC0D111F4801F0BD141EAC6
:1009B00000014FF000004FF0004CB6E711F4801F2B
:1009C00004BF01430020B4F1FD0C88BFBCF5E06F0B
:1009D0003FF6AFAEB5EB030C04BFB6EB020C5FEA1B
:1009E000500C50F1000041EB045170BD0EF0004E70
:1009F0004EEA113114EB5C04C2BFD4EB0C0541EAA2
:100A0000045170BD41F480114FF0000E013C90E69E
:100A100045EA060E8DE60CEA135594EA0C0F08BF62
:100A200095EA0C0F3FF43BAF94EA0C0F0AD150EA61
:100A300001347FF434AF95EA0C0F7FF425AF1046F4
:100A400019462CE795EA0C0F06D152EA03353FF41C
:100A5000FDAE1046194622E750EA410618BF52EA99
:100A600043067FF4C5AE50EA41047FF40DAF52EA6D
:100A700043057FF4EBAE12E74FF0FF3C06E000BF0A
:100A80004FF0010C02E000BF4FF0010C4DF804CD17
:100A90004FEA410C7FEA6C5C4FEA430C18BF7FEAD7
:100AA0006C5C1BD001B050EA410C0CBF52EA430C05
:100AB00091EA030F02BF90EA020F0020704710F185
:100AC000000F91EA030F58BF994208BF90422CBF14
:100AD000D8176FEAE37040F0010070474FEA410C0D
:100AE0007FEA6C5C02D150EA013C07D14FEA430C2B
:100AF0007FEA6C5CD6D152EA033CD3D05DF8040B9C
:100B0000704700BF8446104662468C4619466346CD
:100B100000E000BF01B5FFF7B7FF002848BF10F1A4
:100B2000000F01BD4DF808EDFFF7F4FF0CBF0120E9
:100B300000205DF808FB00BF4DF808EDFFF7EAFF65
:100B400034BF012000205DF808FB00BF4DF808ED20
:100B5000FFF7E0FF94BF012000205DF808FB00BF15
:100B60004DF808EDFFF7CEFF94BF012000205DF89F
:100B700008FB00BF4DF808EDFFF7C4FF34BF0120AC
:100B800000205DF808FB00BF4FEA410C7FEA6C5C77
:100B900002D150EA013C0AD14FEA430C7FEA6C5C77
:100BA00002D152EA033C02D14FF0000070474FF0EF
:100BB000010070474FEA410212F5001215D211D51B
:100BC0006FF47873B3EB625212D94FEAC12343F04A
:100BD000004343EA505311F0004F23FA02F018BFCC
:100BE000404270474FF00000704750EA013005D195
:100BF00011F0004008BF6FF0004070474FF0000058
:100C0000704700BF4FEA4102B2F1E04324BFB3F5A1
:100C1000001CDCF1FE5C0DD901F0004C4FEAC00273
:100C20004CEA5070B2F1004F40EB830008BF20F057
:100C30000100704711F0804F21D113F13872BCBF11
:100C400001F00040704741F480114FEA5252C2F166
:100C50001802C2F1200C10FA0CF320FA02F018BFAF
:100C600040F001004FEAC1234FEAD32303FA0CFC02
:100C700040EA0C0023FA02F34FEA4303CCE77FEA91
:100C8000625307D150EA01331EBF4FF0FE4040F4DB
:100C90004000704701F0004040F0FE4040F400008A
:100CA000704700BF80F0004002E000BF81F00041CB
:100CB00042001FBF5FEA410392EA030F7FEA226C02
:100CC0007FEA236C6AD04FEA1262D2EB1363C1BF92
:100CD000D218414048404140B8BF5B42192B88BF01
:100CE000704710F0004F40F4000020F07F4018BF24
:100CF000404211F0004F41F4000121F07F4118BF44
:100D0000494292EA030F3FD0A2F1010241FA03FCEB
:100D100010EB0C00C3F1200301FA03F100F00043D3
:100D200002D5494260EB4000B0F5000F13D3B0F19B
:100D3000807F06D340084FEA310102F10102FE2A0A
:100D400051D2B1F1004F40EBC25008BF20F001007A
:100D500040EA03007047490040EB0000013A28BF19
:100D6000B0F5000FEDD2B0FA80FCACF1080CB2EB9C
:100D70000C0200FA0CF0AABF00EBC250524218431A
:100D8000BCBFD0401843704792F0000F81F40001BF
:100D900006BF80F400000132013BB5E74FEA410392
:100DA0007FEA226C18BF7FEA236C21D092EA030FFE
:100DB00004D092F0000F08BF0846704790EA010F78
:100DC0001CBF0020704712F07F4F04D1400028BFA5
:100DD00040F00040704712F100723CBF00F5000087
:100DE000704700F0004343F0FE4040F400007047BD
:100DF0007FEA226216BF08467FEA23630146420269
:100E000006BF5FEA412390EA010F40F4800070477B
:100E10004FF0000304E000BF10F0004348BF404221
:100E20005FEA000C08BF704743F0964301464FF05D
:100E300000001CE050EA010208BF70474FF00003B9
:100E40000AE000BF50EA010208BF704711F00043FA
:100E500002D5404261EB41015FEA010C02BF8446CA
:100E60000146002043F0B64308BFA3F18053A3F529
:100E70000003BCFA8CF2083AA3EBC25310DB01FA70
:100E800002FC634400FA02FCC2F12002BCF1004FF4
:100E900020FA02F243EB020008BF20F00100704785
:100EA00002F1200201FA02FCC2F1200250EA4C00D9
:100EB00021FA02F243EB020008BF20EADC7070471F
:100EC0004FF0FF3C06E000BF4FF0010C02E000BF16
:100ED0004FF0010C4DF804CD4FEA40024FEA4103B8
:100EE0007FEA226C18BF7FEA236C11D001B052EA6E
:100EF000530C18BF90EA010F58BFB2EB030088BF34
:100F0000C81738BF6FEAE17018BF40F001007047A2
:100F10007FEA226C02D15FEA402C05D17FEA236C84
:100F2000E4D15FEA412CE1D05DF8040B704700BFCB
:100F3000844608466146FFE70FB5FFF7C9FF002862
:100F400048BF10F1000F0FBD4DF808EDFFF7F4FF9B
:100F50000CBF012000205DF808FB00BF4DF808ED34
:100F6000FFF7EAFF34BF012000205DF808FB00BF57
:100F70004DF808EDFFF7E0FF94BF012000205DF879
:100F800008FB00BF4DF808EDFFF7D2FF94BF01202A
:100F900000205DF808FB00BF4DF808EDFFF7C8FF23
:100FA00034BF012000205DF808FB00BF4FEA40027B
:100FB000B2F1FE4F0FD34FF09E03B3EB12620DD987
:100FC0004FEA002343F0004310F0004F23FA02F0F1
:100FD00018BF404270474FF00000704712F1610F98
:100FE00001D1420205D110F0004008BF6FF000406F
:100FF00070474FF0000070477BB972B90029BEBF3F
:1010000000204FF0004106E008BF00281CBF6FF031
:1010100000414FF0FF3000F0A9B9ADF1080C6DE9C7
:1010200004CE002909DB002B1ADB00F035F8DDF8CF
:1010300004E0DDE9022304B07047404261EB410166
:10104000002B1BDB00F028F8DDF804E0DDE90223CB
:1010500004B0404261EB4101524263EB43037047ED
:10106000524263EB430300F017F8DDF804E0DDE9DA
:10107000022304B0404261EB41017047524263EBEE
:10108000430300F009F8DDF804E0DDE9022304B0D1
:10109000524263EB430370472DE9F047089E0D462B
:1010A00004468846002B4DD18A42944668D9B2FA4C
:1010B00082F252B101FA02F3C2F1200120FA01F1E9
:1010C0000CFA02FC41EA030894404FEA1C41B8FBC9
:1010D000F1F71FFA8CFE01FB178807FB0EF0230CBB
:1010E00043EA084398420AD91CEB030307F1FF3592
:1010F00080F01E81984240F21B81023F63441B1A1C
:10110000B3FBF1F001FB103300FB0EFEA4B244EA86
:101110000344A6450AD91CEB040400F1FF3380F018
:101120000981A64540F20681644402380021A4EBFF
:101130000E0440EA07401EB10023D440C6E9004334
:10114000BDE8F0878B4208D9002E00F0EE80002128
:10115000C6E900050846BDE8F087B3FA83F1002927
:101160004AD1AB4202D3824200F2FC80841A65EB82
:10117000030301209846002EE2D0C6E90048DFE7CD
:1011800002B9FFDEB2FA82F2002A40F09180A1EBB0
:101190000C0001214FEA1C471FFA8CFEB0FBF7F34D
:1011A00007FB1300250C45EA00450EFB03F0A8429F
:1011B00008D91CEB050503F1FF3802D2A84200F262
:1011C000CE8043462D1AB5FBF7F007FB10550EFBFA
:1011D00000FEA4B244EA0544A64508D91CEB040469
:1011E00000F1FF3502D2A64500F2B6802846A4EBF6
:1011F0000E0440EA03409EE7C1F120078B4022FA2B
:1012000007FC4CEA030C25FA07FA4FEA1C49BAFB23
:10121000F9F820FA07F309FB18AA8D401FFA8CFE93
:101220001D4300FA01F308FB0EF02C0C44EA0A44BB
:10123000A04202FA01F20BD91CEB040408F1FF3AB8
:1012400080F08880A04240F28580A8F102086444C2
:10125000241AB4FBF9F009FB104400FB0EFEADB2FA
:1012600045EA0444A64508D91CEB040400F1FF3507
:101270006CD2A6456AD90238644440EA0840A0FB13
:101280000295A4EB0E04AC42C846AE4656D353D0EA
:10129000002E69D0B3EB080264EB0E0422FA01F3CE
:1012A00004FA07F71F43CC40C6E90074002147E762
:1012B0000CFA02FCC2F1200125FA01F34FEA1C47A7
:1012C00020FA01F195400D43B3FBF7F107FB113311
:1012D0001FFA8CFE280C40EA034001FB0EF3834208
:1012E00004FA02F408D91CEB000001F1FF382FD2F8
:1012F00083422DD902396044C01AB0FBF7F307FBD3
:101300001300ADB245EA004503FB0EF0A84208D930
:101310001CEB050503F1FF3816D2A84214D9023B95
:101320006544281A43EA014138E73146304607E769
:101330002F46E4E61846F9E64B45A9D2B9EB020878
:1013400065EB0C0E0138A3E74346EAE7284694E72D
:101350004146D1E7D0467BE76444023847E7023B89
:1013600065442FE7084606E73146E9E6704700BFC7
:1013700000B583B001904FF6FF73012201A9034825
:1013800003F0F6F8019803B05DF804FB00110020AB
:1013900070B51E4886B003F0B9FC04466269636804
:1013A000A2F16406A26803962669194D01360296D9
:1013B000E6682846019624681649009404F09EFBCE
:1013C000AB786A782A2B1ED0022168185A4010F890
:1013D000013F8C462A2B01F10101F7D10CF10206E5
:1013E0000CF103040C4905A804F088FB9DF81420B7
:1013F0009DF81530AA550649512208482B5503F08F
:101400003FF906B070BD04240326EBE7400000203E
:10141000B40E00204C8E0008AC8E00084411002051
:101420000A4B834200D07047002230B40848094D6F
:10143000D0E90031013341F10004446003602A70B7
:101440004FF4005130BC044802F024B87010002062
:1014500040000020BD0F00200010014000202DE9B9
:10146000F047664BDFF898A1664DDFF89C91804607
:101470008646DAF800602F7899F80020634C03F173
:10148000800C0AE0592906D10120174606468046FD
:101490008646024621709C4511D013F8011B002A94
:1014A000F0D0012A1AD0022A1DD0032AF3D1A15567
:1014B0000136BE422DD09C454FF00100EDD1BEF16A
:1014C000000F01D089F80020B8F1000F00D02F7074
:1014D00008B1CAF800600020BDE8F08753290AD09F
:1014E00096460022D7E7042EA15506F1010008D048
:1014F00006460120CFE710469646A1550222013646
:10150000C9E7064601200731032280468646CFB24E
:10151000C1E7B8F1000F00D02F704FF000083C4F2A
:10152000CAF800603A6889F80080002A41D123791E
:10153000384A234412683849C3F80D2051220968FB
:1015400040F25240C3F8071004215A710022A3F858
:101550000B00997194F804C00CF10C0323710CF189
:1015600011010CF10F03C9B213F0FF0301F10100E7
:10157000625218D0A278012B6254265C3244225465
:1015800011D0264A023B9EB2531C1E4412F8013F62
:1015900014F801E0B2427344DBB2635414F800E083
:1015A00073442354F2D10CF11300C0B22870BDE88B
:1015B000F0874FF0800E5FFA82FC23790CEB4C0130
:1015C000890004EB03099E1D03F10800013102EBC1
:1015D0004202920089F805E02044A155104989F89B
:1015E00007C003F0B3FCA25D2379C7F80080134461
:1015F000023303F0FF0323719AE700BF340F00208A
:101600009C14002098140020A014002098120020A0
:10161000B80F002034000020300000209A12002073
:10162000B4020020012800D070476420084A094B0A
:1016300012681B6810B4516A074C5B6A074A246839
:1016400000FB01331460064A10BC1360704700BFF2
:1016500070100020B8100020400000203000002052
:10166000340000200021094A08B5904280F83C105F
:1016700000D008BD6422064903F05EF80028F8D0C7
:10168000BDE80840034804F021BA00BF88110020DB
:10169000340F0020B08E000808B5104B834200D0F4
:1016A00008BDFFF7DBFE024688B90D4804F00EFACC
:1016B0000A4803F0A3F864220A49084803F03CF8FA
:1016C0000028EDD0BDE80840074804F0FFB90749FD
:1016D00092B2074802F0F4FFEAE700BF8811002049
:1016E000E08E0008340F0020FC8E000898120020C5
:1016F0000011002030B500220023002401258BB00A
:10170000CDE90023CDE90223CDE90423CDE9064547
:1017100001220E2304466946CDE9082301F0C2F8F0
:10172000204601F03DF90221204601F059FA0BB0A4
:1017300030BD00BFF0B56426414B424C19682368A8
:101740004A6A414A03EB430312689B00556A4A6A9E
:10175000016806FB05223D4D95B02E683C4DEE50CC
:101760002B445A603B4B994263D06FF401720D9B3E
:10177000394E9A18062A37D93288B2F5FA7F03D043
:10178000D30703D515B0F0BD00233380334B1B784E
:101790001A1F022A01D9012BF4D140F2FF110822AD
:1017A0000024002600272E4B069193F90100B3F97F
:1017B00000100A928DF810008DF8111001AB04AAE8
:1017C00006A92848CDE908678DF812408DF8134026
:1017D0008DF814408DF815408DF816408DF817409F
:1017E00001F010F915B0F0BD053B1F4FDBB203EB64
:1017F000430307EB8303BDF80A70BDF808007FBA06
:10180000DF80BDF80C7021687FBA32881F819DF897
:101810000E7040BA988001329F7201EB4103013192
:1018200092B280B205EB8305C9B23280A860216014
:10183000A3E7002102AB0DAA01F048F995E700BF2C
:10184000B8100020B80F00207010002040000020C9
:10185000B402002000640040B40F0020BE0F00203E
:1018600094120020C00F0020D411002008B572B6D9
:10187000044C20464FF4005101F010FEC82000F047
:101880007DFFF6E70010014000230122D0B50120C2
:1018900090B04FF480310224CDE90B33CDE9013310
:1018A000CDE90333089300930A9209934FF48032F1
:1018B0004FF4E013CDE9060106A8CDE90E230D94FF
:1018C00001F002FE88B903460F2602270022049386
:1018D0004FF4806321466846CDE90067CDE90223D5
:1018E00001F0E2FF08B910B0D0BDFFF7BFFF00BFA5
:1018F0002DE9F04F0024AFB000F01CFFFFF7C4FF4C
:10190000CDE92644CDE92844BB4D0122AB694FF413
:10191000005143F01003AB61AB69B84803F010030A
:101920000893089BAB6943F02003AB61AB6903F0FC
:1019300020030993099BAB6943F00403AB61AB69D6
:1019400003F004030A930A9BAB6943F00803AB61FD
:10195000AB6903F008030B930B9B01F09BFD4FF465
:1019600000520123CDE9262300220223A34826A901
:10197000CDE9282301F07AFC012340F601022893E7
:1019800000239F4826A9CDE9262301F06FFC012200
:101990009C4B9D4826A9CDE92623289401F066FC9E
:1019A00022462146062001F081FA062001F0BCFA09
:1019B0006B69224643F001036B616B69214603F0BA
:1019C00001030E200793079B01F070FA0E2001F02F
:1019D000ABFA2022214626A8CDE91444CDE91644CD
:1019E000CDE90E44CDE91E44CDE92044CDE92244A1
:1019F000249403F0B9FA854B1A46C3E904449C6069
:101A00009C6141F61F43536042F20F73D360804BD9
:101A10001046136002F038F8002840F05A834FF463
:101A200080587A4814A9CDF8508002F08FFA002827
:101A300040F04F83754802F0C3F8002840F0498316
:101A40002026002771480EA9CDE90E6702F0C2FCDE
:101A50000246002840F03D8360244FF4FA65CDE94A
:101A60001E4500240825CDE92045002400252490AA
:101A70001EA96648CDE9224502F06CF9002840F025
:101A8000288300224FF400532D9026A95F48CDE90A
:101A90002645CDE92845CDE92A2302F0CDFC0446B0
:101AA000002840F01683594800F03AFC4FF080417E
:101AB00047226323574DCDE911442846CDE9194407
:101AC000CDE91B44C5E90012109418940C941394AA
:101AD0000D94AC602C61AC61EB6001F0D5FF002887
:101AE00040F0F782284610A9CDF8408002F02EFA87
:101AF000002840F0EE8206220023284618A9CDE9EE
:101B0000182302F0C9FA002840F0E38228460CA905
:101B1000CDE90C6702F05EFC002840F0DA82002379
:101B20004FF4E1240C253C483C4AC0E90143C0E99C
:101B30000333C0E90553C361026002F0ABFC034606
:101B4000002840F0C6824FF416523548C0E90233EF
:101B5000C0E90435C0E90633324BC0E9003202F077
:101B600099FC0346002840F0B4822F48C0E90143A5
:101B7000C0E90333C0E90553C3612C4B036002F095
:101B800089FC0346002840F0A48229484FF4C00293
:101B90004FF41021C0E9023383834FF48073022491
:101BA000C0E90412234A83614460026000F0F8FD3A
:101BB000002840F08E821E24104D28464FF400511C
:101BC00001F06CFC642000F0D9FD013CF5D10F4818
:101BD00001F0C8FF0FF21809D9E9008921460B4826
:101BE00002F05CF82146094802F084FB24E000BFC3
:101BF0004AD8124DFB21094000100240001001405C
:101C00000008014000001110000C0140701000207D
:101C1000002C0140B81000200011002000380140C5
:101C2000441100200044004088110020004800407A
:101C3000C00F002000640040AD4801F093FF642213
:101C4000AC49AD4802F078FDAC4B01211C70AC4BA7
:101C5000AC481C7001F018FC0446AB4BDFF8ACB28A
:101C6000AB4AAC49AC480193009300238BF8004089
:101C700000F048FAA94BA64A0193A94BA949AA48E2
:101C80000093AA4B00F03EFAA948FFF733FDDFF8B6
:101C9000A4A29C4F38E0062C00F0CE80A31E012B9E
:101CA00040F2F180072C00F0EE80042C00F0A981B6
:101CB000052C00F0CB81A04B8BF8000098889F4B3F
:101CC00000F69920A3FB0023C21A03EB52031B0B5F
:101CD000C3EB4333C01AFEF753FC81A3D3E90023BF
:101CE000FEF7B8FC80A3D3E90023FEF7DDFD4246F2
:101CF0004B46FEF7F7FA05460E4600F039FDDAF8D6
:101D00000030C01A05286BD88D4B1B685A6AB2F593
:101D10007A7F08D25B6AB3F52F7F04D9894B1B7891
:101D2000002B00F052810121384601F0ADFB734BCE
:101D30001C78854B012C1870ADD89BF80030012B16
:101D4000B9D1002800F04E817B4B8BF800009888B9
:101D50007A4B00F69920A3FB0023C21A03EB52032F
:101D60001B0BC3EB4333C01AFEF70AFC5CA3D3E999
:101D70000023FEF76FFC5CA3D3E90023FEF794FD7C
:101D800042464B46FEF7AEFA062C05460E46B4D147
:101D90006E4B6F4A1B785A4C02EB03132278D3E93F
:101DA0000001CDE90201D3E90201CDE90401002AD5
:101DB00040F0DA802A463346FEF7C8FE002800F0DD
:101DC000E180DDE90201FEF71DFF624B186003238D
:101DD000237000F0CDFCDAF80030C01A052893D942
:101DE000464B1B78062B40F0268131462846FEF7ED
:101DF00009FF584B024619684B4800F091F9FFF76C
:101E0000D5F84D4B0446B3F90600534B1C60FFF761
:101E100003F8024620461446FEF7FEFF224601461E
:101E20003D4800F07DF9FFF7C1F84C4B188000F0F9
:101E30009FFCCAF8000067E79BF80030012B80D0B8
:101E40003D4B8BF8000098883C4B00F69920A3FB93
:101E50000023C21A03EB52031B0BC3EB4333C01A1C
:101E6000FEF78EFB1EA3D3E90023FEF7F3FB1EA3B0
:101E7000D3E90023FEF718FD42464B46FEF732FA3F
:101E800005460E4684E700F073FC354B1B68C01A0C
:101E90002D4B3228187840F29580324B1B788342C4
:101EA000164B1C787FF450AF032C00F0F480022C0A
:101EB00000F0FE80072C7FF447AF244A13780133EB
:101EC000DBB2022B137040F2FD8000231370052358
:101ED0000A4A13701423204A1360ECE6AFF3008023
:101EE0004AD8124DFB2119400000000000FFBF40FE
:101EF000B8100020340F002088110020BE0F0020F1
:101F0000BC0F00200008014000401C4638000020A3
:101F10000000A04000002042281200200000F041F4
:101F20000000C842000048425C120020000020412E
:101F3000C00F0020D0110020D41100204100080063
:101F400070100020BD0F0020B60F0020A802002056
:101F5000000000203C00002090120020941200207D
:101F6000AC020020B0020020012A53D0032A7FF4E3
:101F7000C4AEDDE902012A463346FEF7FBFD002828
:101F80003FF4BBAEDDE90401FEF73CFE4FF0010279
:101F9000514B1A70514B1860AFE600F0E9FB504B03
:101FA0001B68C01A64280BD94E4B1B68132BD4BF77
:101FB000053301334B4A136000F0DAFB484B1860DD
:101FC000494B1878494B1C78BEE64FF00102484B4C
:101FD0001A70FFF7DDF901224FF40051454801F076
:101FE00059FAA0E600F0C4FB434B404A18603E4B50
:101FF0001878424B18701378002B30D103231370DC
:1020000059E6384B1B681D2BC7DD4FF00102374BDB
:102010001A7050E62A463346FEF78EFD00283FF43C
:102020006CAEDDE90201FEF7EDFD2C4B2A4A18608B
:102030000323137061E62B4B314A1C68B2F906008A
:102040001E2CA8BF1E2424EAE474DFE6254A136888
:10205000002B0DDC00231360244A13702BE6012BA8
:1020600015D0062B7FF427AE0723204A137022E6F3
:1020700000F07EFB1A4B1B68C01A3228A0D9194BFE
:102080001B68132BCCBF03F1FF33033B92E7022302
:10209000164A13700FE60A23124A136000F068FB19
:1020A0000F4B124A1860042313700F4B187802E686
:1020B00000F05EFB0A4B0D4A1860062313700A4BB2
:1020C0001878BDE60623094A13700023024A1370EC
:1020D000B6E6FFF7CBFB00BFBC0F00203C000020A2
:1020E000CC11002090120020B60F0020BE0F00205F
:1020F000BD0F002000100140AC020020B002002003
:10210000D411002000B5DDF804E0DDF808C001605E
:1021100042608360C0F80CE0C0F810C05DF804FBBA
:102120002DE9F84304460846D4F81C801146A26104
:10213000C4F820806061FEF7B9FD2168E0610546C2
:10214000FEF718F80646616828466662FEF712F840
:10215000A16AFEF7ADFD414607462846FEF7A6FDFB
:10216000A168FEF707F80546D4F80C90384609F147
:1021700000484146E562FEF7FBFE28B9494638466D
:10218000FEF700FF00B3C84641463046C4F8288039
:10219000FEF78EFD2946FEF78BFD2769064607F1FF
:1021A00000452946FEF7E4FE28B939463046FEF7D9
:1021B000E9FE20B13D4628462563BDE8F883354653
:1021C00028462563BDE8F883B846DDE70E4B82B0AC
:1021D0009A690E4942F001029A619A6902F001027D
:1021E0000092009ADA6942F08052DA61DB6903F00A
:1021F00080530193019B4B6823F0E06343F000732D
:102200004B6002B0704700BF001002400000014068
:10221000F0B50024214B026887B09A42CDE9024410
:10222000CDE9044401D007B0F0BD4FF4807503F54B
:10223000D633DA6902A942F00072DA61DA69184825
:1022400002F000720092009A9A694FF4007642F010
:1022500008029A619B69022703F008030193019B1E
:10226000029501F003F803230E4D02A90C480593D3
:10227000CDE9026700F0FAFF6B68224623F4C04301
:1022800043F0E06343F4804321466B60142000F088
:102290000DFE142000F048FE07B0F0BD00640040C1
:1022A000000C01400000014000B51B4A036883B0E8
:1022B000934213D0B3F1804F02D003B05DF804FB1A
:1022C00003F50433DA6942F00102DA61DB6903F0F5
:1022D00001030193019B03B05DF804FB00220F4B47
:1022E0001820996941F4006199619B69114603F4D2
:1022F00000630093009B00F0D9FD182000F014FE4D
:1023000000221920114600F0D1FD192003B05DF81C
:1023100004EB00F009BE00BF002C01400010024099
:10232000002370B5164A016886B09142CDE90233A8
:10233000CDE9043301D006B070BD4FF4C07402255E
:10234000022603F1804303F504339A690D4842F0F5
:1023500004029A619B6902A903F004030193019BA3
:10236000CDE90245059600F081FF074A536823F046
:10237000C00343F0E06343F04003536006B070BD18
:10238000002C01400008014000000140F0B500248D
:10239000684A03688BB093420546CDE90644CDE90F
:1023A000084407D0644A934249D0644A934276D0A5
:1023B0000BB0F0BD624B63489A69634E42F48042B1
:1023C0009A619A6902F480420092009A9A6942F0F6
:1023D00004029A619B694FF4007203F004030193B5
:1023E000019903210223099106A9CDE9062300F0F2
:1023F0003DFF4FF480620023524806A9CDE9062331
:10240000089400F033FF1022802350493046C6E97B
:102410000444C6E906443160B4607260F36000F0C1
:10242000A9FD00287FD10022252011466E63756228
:1024300000F03CFD252000F077FD0BB0F0BD404BD7
:102440000426DA69022742F40032DA61DA6906A961
:1024500002F400320292029A9A693A4842F0040267
:102460009A619B69CDE9066703F004030393032394
:10247000039A099300F0FAFE0023082206A93148C6
:10248000CDE90623089400F0F1FE224621462620DD
:1024900000F00CFD262000F047FD0BB0F0BD284BEE
:1024A0002B48DA692B4E42F48022DA61DA6902F4B1
:1024B00080220492049A9A6942F008029A619B6908
:1024C0004FF4806203F0080305930599032102236A
:1024D000099106A9CDE9062300F0C8FE02204FF4B9
:1024E00000620023089006A91948CDE9062300F0F0
:1024F000BDFE8023184A3046C6E90024C6E90444DC
:10250000C6E90644B460F36000F034FD70B90022FF
:1025100027201146AE63756200F0C8FC272000F04A
:1025200003FD0BB0F0BDFFF7A1F97CE7FFF79EF9C3
:10253000EDE700BF00380140004400400048004083
:102540000010024000080140E80F00204400024053
:10255000000C01402C10002030000240FEE700BFBC
:10256000FEE700BFFEE700BFFEE700BFFEE700BFDB
:10257000704700BF704700BF704700BF00F0ECB865
:10258000012000F095BF00BF014800F0D9BD00BF99
:10259000E80F0020014800F04DBB00BFC00F002035
:1025A000014801F0FDBD00BF70100020014801F09E
:1025B000F7BD00BF70100020014802F04FBA00BF05
:1025C00000110020014802F049BA00BF4411002068
:1025D000014802F043BA00BF881100200120704773
:1025E00008B502F069FB162203464FF0FF301A606F
:1025F00008BD00BF08B502F05FFB16230360FEE7CD
:1026000070B5161E07DD0C468D19AFF3008004F877
:10261000010BA542F9D1304670BD00BF70B5161E42
:1026200007DD0C468D1914F8010BFEF7A1FEAC4234
:10263000F9D1304670BD00BF4FF0FF30704700BF8A
:102640004FF4005300204B60704700BF01207047DB
:10265000002070470D49034610B50D4A0D4C08681F
:10266000121B20B10344934207D80B6010BD0A4CE3
:102670002046034493420C60F7D902F01DFB0C2264
:1026800003464FF0FF301A6010BD00BFA8140020B1
:102690000050002000040000E8140020704700BF34
:1026A0000C480D490D4A002302E0D458C4500433AD
:1026B000C4188C42F9D30A4A0A4C002301E0136083
:1026C0000432A242FBD3FFF7E9FF02F0FBFAFFF767
:1026D0000FF97047000000208C020020549400087D
:1026E0008C020020E8140020FEE7000038B54FF40B
:1026F0007A730D4A054611780C4AB3FBF1F3126860
:10270000B2FBF3F000F01EFC08B90F2D01D9012037
:1027100038BD0446024629464FF0FF3000F0C6FBA4
:10272000034B20461D6038BD500000204C000020A7
:1027300054000020074A08B51368032043F0100333
:10274000136000F0A1FB0F20FFF7D0FFFFF73EFD65
:10275000002008BD00200240034A044B11681B788A
:102760000B441360704700BFAC14002050000020E1
:10277000014B1868704700BFAC14002038B5044600
:10278000FFF7F6FF631C054602D0044B1B781C4480
:10279000FFF7EEFF401BA042FAD338BD50000020E7
:1027A00000287DD038B590F820300446002B74D036
:1027B0002268136843F001031360FFF7D9FF054651
:1027C00004E0FFF7D5FF401B0A285DD823685A684C
:1027D000D107F6D51A6822F002021A60FFF7C8FF87
:1027E000054604E0FFF7C4FF401B0A284CD82368C5
:1027F0005A689207F6D4227E0025012A1A684FF003
:10280000010C0CBF42F0800222F080021A60627E4E
:102810002846012A1A680CBF42F0400222F040020A
:102820001A60A27E012A1A680CBF42F0200222F030
:1028300020021A60E27E012A1A680CBF22F0100200
:1028400042F010021A60227F012A1A680CBF42F07F
:10285000080222F008021A60627F012A1A680CBF7F
:1028600042F0040222F004021A60D4E902210A4371
:1028700021690A4361690A43616801390A43DA61DF
:10288000656284F820C038BD0522636A012043F4E4
:102890000033636284F8202038BDFFF7B9FC87E776
:1028A0000120704790F820200346013A012A05D9FB
:1028B0005A6A012042F480225A6270474FF0010C9C
:1028C000036830B4D3F80042486944EA0C04C3F802
:1028D0000042D3F81C4200F01F020CFA02F2CD694C
:1028E00024EA0204C3F81C42D443002D3FD1D3F89C
:1028F0000C52D1F80CC02540C3F80C528D8803EB64
:10290000C00045EA0C45C0F84052D1F808C00D8817
:1029100045EA0C45C0F84452886910BBD3F804025C
:102920002040C3F804020869A8B9D3F8140204408F
:10293000C3F81442096A012904D1D3F81C120A43CE
:10294000C3F81C22D3F80022002030BC22F0010280
:10295000C3F800227047D3F814021043C3F81402DE
:10296000E8E7D3F804021043C3F80402DBE7012DC3
:10297000D2D1D3F80C52D1F800C01543C3F80C5291
:102980008D8803EBC00045EA0C45C0F84052D1F8F1
:1029900008C08D8945EA0C45C0F84452BCE700BF29
:1029A00070B590F820300446012B06D00126436A0A
:1029B00043F400234362304670BDDEB20223026856
:1029C00080F82030136823F001031360FFF7D0FE76
:1029D000054604E0FFF7CCFE431B0A2B08D823680A
:1029E0005B6813F00103F5D11E466362304670BD8B
:1029F0000522636A304643F40033636284F8202082
:102A000070BD00BF844630B490F82000DCF8005060
:102A100001380128AC6834D814F0E05F3AD0C4F330
:102A20000164032C48D00120A04018608B68002B63
:102A300039D0C8680343486843EAC00304F118006A
:102A400000012B500B6905EB041CCCF88431097D87
:102A50002301012905D1DCF8841141F48071CCF8FF
:102A6000841151682B44C3F88C111268002030BCCB
:102A7000C3F88821DCF8803143F00103CCF88031C1
:102A80007047DCF82430012030BC43F48023CCF8BC
:102A900024307047DCF82430012030BC43F40013AC
:102AA000CCF824307047CB68086843EA405004F102
:102AB00018031B01E850C5E7DCF82430012030BCC6
:102AC00043F40003CCF82430704700BF844690F8EC
:102AD0002000013801286FD8F0B5DCF8000051B9AA
:102AE000C468A5070AD1DCF82430012043F40013A0
:102AF000CCF82430F0BD0469A407F4D000EB011E2B
:102B0000DEF8B0510C0105F004059560002D5BD096
:102B1000DEF8B051ED085560DEF8B051204405F004
:102B20000205D560DEF8B451DEF8B46105F00F059A
:102B30001561DEF8B451D0F8B871C6F307262D0C34
:102B4000966155611F70DCF800202244D2F8B8214C
:102B5000120A5A70DCF800202244D2F8B821120C74
:102B60009A70DCF800202244D2F8B821120EDA70F4
:102B7000DCF800202244D2F8BC211A71DCF80020D5
:102B80002244D2F8BC21120A5A71DCF800202244F7
:102B9000D2F8BC21120C9A71DCF800202244D2F841
:102BA000BC21120EDA71DCF8002091B9D368084616
:102BB00043F02003D360F0BDDCF82430012043F45F
:102BC0008023CCF824307047DEF8B0516D0D1560CD
:102BD000A2E71369002043F020031361F0BD00BF9A
:102BE00090F820200346013A012A05D95A6A0120AB
:102BF00042F480225A6270470268002053691943E8
:102C000051617047704700BF704700BF704700BFF9
:102C1000704700BF704700BF704700BF704700BFDC
:102C2000704700BF704700BF704700BF704700BFCC
:102C3000704700BF2DE9F84F036805465C69D3F87B
:102C4000048014F001069F68D3F80CB0D3F810A0EC
:102C5000D3F8189025D017F0010640F08F804FF47C
:102C600000524FF48041F8050DD54FF480702B6869
:102C70009860BB0500F1BE80780500F1E4803B055B
:102C800040F1F0800E46F8030BD54FF480322B68EC
:102C9000B9039A6000F1BA807A0340F1CF8046F41C
:102CA0000046270702D51BF0100F61D1600703D53E
:102CB0001BF0080F40F08C80A10704D52B68DB685F
:102CC0009A0740F08C80630602D51AF0100F49D1A4
:102CD000A70602D51AF0080F73D1E00603D52B68BA
:102CE0001B69990762D1A20302D518F0100F61D1B8
:102CF000E30302D518F0080F75D1270405D518F0A5
:102D0000040F06D12B6804225A60002E46D1BDE87C
:102D1000F88FE00504D519F0010F18BF46F0010641
:102D2000A10504D519F0020F18BF46F0020662058E
:102D300004D519F0040F18BF46F004062305E1D5A9
:102D400019F07009DED0B9F1400F00F09A8061D817
:102D5000B9F1200F00F08380B9F1300F68D146F04F
:102D600020065FE010222B6846F480661A61AFE708
:102D700010222B6846F40076DA6097E701229A6009
:102D8000BB073BD47E0760D417F008066ED04FF423
:102D900040524FF4A0414FF4805664E76B6A2846D6
:102DA0001E436E62FFF744FFBDE8F88F2846FFF729
:102DB00037FF98E710222B6828465A60FFF734FF48
:102DC00096E708222B6828461A61FFF72BFF84E755
:102DD00008222B682846DA60FFF720FF6CE72846B8
:102DE000FEF7A8FC6FE708222B6828465A60FFF719
:102DF0001DFF82E72846FFF707FF44E7FFF702FFC2
:102E000000264FF400524FF480412CE72846FFF78C
:102E1000FDFE46E7B9F1500F1ED0B9F1600F08BFB3
:102E200046F480762B689A6922F070029A616AE70C
:102E3000B9F1100FF6D146F00806F3E73B031CD5B5
:102E400046F480362DE716461DE74FF420524FF426
:102E500090414FF4006606E746F08006E2E746F050
:102E60001006DFE72846FFF7D5FE0CE7FFF7D0FE98
:102E70004FF400524FF48041F5E62846FFF7CCFEB0
:102E80000FE746F04006CDE74FF6FF0C0649030278
:102E9000CA6803F4E06302EA0C02134343F0BF6321
:102EA00043F40033CB60704700ED00E01C4B00B5ED
:102EB000DB68C3F30223C3F1070EBEF1040F03F175
:102EC000040C28BF4FF0040EBCF1060F1BD94FF0C5
:102ED000FF3C033B0CFA03FC22EA0C024FF0FF3CE0
:102EE0000CFA0EFC21EA0C019940002841EA02018B
:102EF0000CDB090100F16040C9B200F5614080F8C7
:102F000000135DF804FB00221346E7E7054B00F0D1
:102F10000F000901C9B2034419765DF804FB00BF34
:102F200000ED00E0FCEC00E0002807DB012300F0EE
:102F30001F01034A40098B4042F82030704700BF10
:102F400000E100E00138B0F1807F0FD24FF0E023C4
:102F50004FF0F00C0022072110B4054C586184F8A2
:102F600023C010469A6110BC196170470120704758
:102F700000ED00E040B3034605C84FF4807C30B458
:102F800000249968DD680A4310492A43104D014422
:102F9000A5FB015109098900196419699D690A4352
:102FA00059690A4301682A43DD6921F47F5121F000
:102FB00030012A430A430749D9630260A3F820C0BD
:102FC00020469C6330BC704701207047F8FFFDBF6E
:102FD000CDCCCCCC00000240844690F820000128E3
:102FE0003FD030B401249CF821008CF82040A0424E
:102FF00005D000238CF82030022030BC704702241A
:103000008CF821400024DCF84050CCF83840DCF843
:103010000040A840256825F001052560DCF83C50FB
:1030200068606360DCF80430102BDCF82C300BBFD8
:10303000A260A160E160E26053B1236843F00E0337
:1030400023602368002043F00103236030BC7047F5
:10305000236823F004032360236843F00A032360FA
:10306000EFE70220704700BF90F821200346022AB4
:1030700006D0042100220120996383F820207047A4
:1030800001214FF4807C10B41A681C6C0020A14010
:10309000146824F00E041460146824F00104146011
:1030A000DA6B5160A3F820C010BC704790F8212063
:1030B0000346022A03D0042201209A637047026863
:1030C00010B511681B4821F00E0111601168824291
:1030D00021F00101116021D017498A421AD0143120
:1030E0008A421DD014318A421DD014318A421DD02B
:1030F00014318A420CBF4FF480124FF080724FF4AB
:1031000080700E4C596B6260188429B1184688474C
:10311000002010BD1022F2E7084610BD0122EEE7A4
:103120004FF48072EBE74FF48052E8E74FF48032BF
:10313000E5E700BF080002401C000240000002401A
:10314000042270B4C66B016C346803688A40224262
:103150001D681FD06A071DD51A68910603D41A6826
:1031600022F004021A603E4A934250D01432934235
:1031700060D01432934267D0143293426AD0143232
:1031800093425CD0143293420CBF4FF480034FF053
:1031900080633DE002228A40224222D0AA0720D545
:1031A0001A68910606D401211A6822F00A021A60F0
:1031B00080F821102A4A934231D01432934241D0F0
:1031C0001432934243D01432934235D01432934296
:1031D00043D0143293420CBF4FF400134FF00073EE
:1031E0001EE008228A40224217D02A0715D51A6805
:1031F0004FF4807422F00E021A600123026B03FA6E
:1032000001F17160836304843AB170BC10470423F8
:103210001449C26A4B60002AF7D170BC7047022380
:103220000021104C826A636080F82010002AF4D0DC
:1032300070BC10474023EBE74FF40053F0E74FF426
:103240008023E5E72023EBE74FF48063E0E74FF4CA
:103250000073E5E74FF48043DAE74FF40033DFE72C
:103260000800024000000240806B70472DE9F04FDB
:103270000E6883B0002E00F0B58000227A4F92468F
:1032800013467A4DDFF8E88106E0013336FA03F49D
:1032900002F1040200F0A68001249C4034EA060EEC
:1032A00004EA060CF1D14E68122E00F29E80122E16
:1032B0001AD8DFE806F0A7B9B5CE191919191919E6
:1032C00019191919191919B1BC00DFF8A8E17645C7
:1032D00000F098800EF5702E764500F09380AEF5E4
:1032E000801E764500F08E80BCF1FF0F9CBF8646A5
:1032F00093464FF00F0684BF00F1040EA2F1200B9D
:10330000DEF800400AFA0BF906FA0BFB24EA0B047C
:1033100044EA0904CEF800404C6814F0805F79D08C
:10332000D7F818E003F003094EF0010EC7F818E0D3
:10333000D7F818E04FEA89090EF0010ECDF804E045
:10334000DDF804E023F0030E0EF1804E0EF5803E12
:10335000DEF808B006FA09F62BEA0606DFF818B11F
:10336000584513D00BF5806B58456BD0DFF80CB186
:10337000584560D0DFF808B158450CBF4FF0030B3B
:103380004FF0040B0BFA09F946EA0906CEF808607B
:103390002E6814F4803F14BF46EA0C0626EA0C0699
:1033A0002E606E6814F4003F14BF46EA0C0626EA4D
:1033B0000C066E60AE6814F4801F14BF46EA0C065B
:1033C00026EA0C06AE6014F4001FEC681FD044EA35
:1033D0000C04EC600E68013336FA03F402F10402C7
:1033E0007FF45AAF03B0BDE8F08F46450AD07FF6B0
:1033F0006CAFDFF890E0764504D00EF5803E764560
:103400007FF472AF8E683EBB4FF0040A6CE724EA8B
:103410000C04EC600E6838E7CC6804F1040A63E73A
:10342000CC6804F1080A5FE7D1F80CA05CE7CC682F
:1034300004F10C0A58E74FF0020B0BFA09F946EABF
:103440000906A3E74FF0010B0BFA09F946EA090652
:103450009CE74FF0000A47E7012E4FF0080A0CBF27
:103460000461446140E700BF0010024000040140D5
:10347000000022100000121000080140001001405E
:1034800000140140000031108368194214BF01206C
:103490000020704702B9090401617047C36801EA5E
:1034A000030221EA030141EA02410161704700BFC2
:1034B000044A5169014200D1704708B55061FEF7D6
:1034C000B1F808BD00040140002800F0B6812DE9E4
:1034D000F04103680446DD0782B035D59A494A6851
:1034E00002F00C02042A00F0EF804A6802F00C029D
:1034F000082A00F0E5806368B3F5803F10D0002B08
:1035000000F00C81B3F5A02F00F082818E4B1A6879
:1035100022F480321A601A6822F480221A6004E0D1
:10352000894A136843F480331360FFF721F9864E0C
:10353000054605E0FFF71CF9401B642800F2EA800D
:1035400033689A03F6D523689F0728D57E4A5168C9
:1035500011F00C0F00F08D80516801F00C0108296A
:1035600000F083802369002B00F018810122774B43
:10357000754E1A60FFF7FCF8054605E0FFF7F8F80E
:10358000401B022800F2C68033689807F6D53368DE
:10359000626923F0F80343EAC203336023681A0721
:1035A0001FD45D0742D5684BDA69D0007DD5002570
:1035B000674E3368D90540F19D80E368012B00F028
:1035C000FE80002B00F0CA80052B5F4B1A6A00F0CA
:1035D0002C8122F001021A621A6A22F004021A6295
:1035E000F2E0A369002B4FD00122584B564EC3F88E
:1035F0008024FFF7BDF8054605E0FFF7B9F8401B4A
:10360000022800F28780736A9B07F6D5514B524A15
:103610001B68A2FB03235B0A019300BF019B5A1E98
:103620000192002BF9D123685D07BCD4E069C0B1D9
:10363000454D6B6803F00C03082B00F0D880002286
:10364000424B02281A6600F0FA80FFF791F8044610
:1036500004E0FFF78DF8001B02285BD82B689B0164
:10366000F7D4002002B0BDE8F0815268D6033FF5E0
:1036700079AF354A1268950730D52269012A2DD0D5
:10368000012002B0BDE8F081304A2F4EC2F88034EC
:10369000FFF76EF8054604E0FFF76AF8401B0228C2
:1036A00038D8736A9F07F7D4BDE7DA69012542F07D
:1036B0008052DA61DB6903F080530093009B77E767
:1036C0004A68D0037FF517AF1F4A126891037FF550
:1036D0003BAF6268002A7FF437AFD1E71A496069CF
:1036E0000A6822F0F80242EAC0020A601A077FF56F
:1036F00058AF76E7336843F480733360FFF738F8E8
:1037000007463368DA053FF558AFFFF731F8C01BBD
:103710006428F6D9032002B0BDE8F0810A4D2B6879
:1037200023F480332B602B6823F480232B60FFF776
:103730001FF8064604E0FFF71BF8801B6428E9D851
:103740002B689B03F7D4FEE60010024000004242C3
:10375000007000404C000020D34D6210504E41F2EA
:103760008838336A23F001033362336A23F0040399
:103770003362FEF7FDFF074604E0FEF7F9FFC01BCA
:103780004045C7D8336A9807F7D4002D3FF44EAFB1
:10379000434AD36923F08053D36147E7414A404EFF
:1037A0001360FEF7E5FF054604E0FEF7E1FF401B6E
:1037B0000228AFD833689907F7D42368EFE6384A70
:1037C000136A43F001031362FEF7D2FF41F2883817
:1037D0000646334F04E0FEF7CBFF801B404599D8E7
:1037E0003B6A9B07F7D5002D3FF420AFD0E70128B7
:1037F0003FF438AF6B68226A03F4803191427FF462
:103800003FAF606A03F47013181A18BF012029E74C
:1038100003F18043A3F53C331A6842F480221A6016
:103820001A6842F480321A607FE642F004021A629B
:103830001A6A42F001021A62C6E701207047FEF7D9
:1038400097FF064605E0FEF793FF801B02283FF630
:1038500061AF2B689901F6D4236AB3F5803F05D197
:103860006A68A16822F400320A436A6001200C4DA4
:10387000616A6A680B4322F474120A4913436B604D
:103880000866FEF775FF044605E0FEF771FF001BB2
:1038900002283FF63FAF2B689A01F6D5E1E600BF5C
:1038A0000010024000004242002800F0B1805E4A51
:1038B0002DE9F0411368044603F007038B420D46DF
:1038C00086B00DD2136823F007030B43136013680F
:1038D00003F007038B4203D0012006B0BDE8F0815E
:1038E00023689E0714D5580704D550494A6842F406
:1038F000E0624A60190704D54C494A6842F46052B4
:103900004A604A49A0684A6822F0F00202434A60CD
:10391000DA0720D56268454B012A1B687AD0022A53
:1039200073D09E07D8D5414E41F28838736823F092
:10393000030313437360FEF71BFF074604E0FEF723
:1039400017FFC01B404568D87368626803F00C031A
:10395000B3EB820FF3D1344A136803F00703AB4291
:1039600009D9136823F007032B431360136803F08E
:103970000703AB42B0D12368580706D52B49E0684E
:103980004A6822F4E06202434A60190707D5274AD1
:103990002169536823F4605343EAC103536040F242
:1039A0000124234B06AD0FCB05E90F001F49ADF8ED
:1039B00004404A6802F00C03082B11D01D4B1B4A2F
:1039C0001D4852681D49C2F30312805C1C4AC34063
:1039D00008681360FEF78AFE002006B0BDE8F0819B
:1039E000C2F3834318336B44D20313F8103C16D54B
:1039F0004A681049C2F3404201FB03F318326A449B
:103A000012F8142CB3FBF2F3D9E79F018BD463E7D0
:103A1000012070479B0386D45EE703205DE7094AD7
:103A200002FB03F3CBE700BF00200240001002407E
:103A3000408F000800127A00288F000854000020F0
:103A40004C00002000093D00044B054A5B68054915
:103A5000C3F30223CB5C1068D840704700100240CB
:103A60004C000020388F0008044B054A5B6805496C
:103A7000C3F3C223CB5C1068D840704700100240EB
:103A80004C000020388F0008002866D010B590F850
:103A90003D30044603F0FF02002B45D0022322688C
:103AA0002F4984F83D308A42136842D0B2F1804FEA
:103AB00011D0A1F594318A420DD001F580618A427E
:103AC00009D0A06923F080030343E16813606368B1
:103AD000D162936210E0A16823F0700320690B4368
:103AE00023F44073A169034323F08003E0680B4390
:103AF00061681360D06291620123536184F846309B
:103B000084F83E3084F83F3084F8403084F8413007
:103B100084F8423084F8433084F8443084F84530E7
:103B200084F83D30002010BD80F83C20FEF7BCFB3F
:103B3000B4E7A06823F070032169034323F44073C2
:103B40000B43A16923F080030B431360E368D36246
:103B50006368936263691363CEE70120704700BF17
:103B6000002C014090F83D30012B1FD10222036848
:103B700080F83D20DA680F4942F001028B42DA609A
:103B800009D0B3F1804F06D00B4A934203D002F51F
:103B90008062934204D19A6802F00702062A07D095
:103BA0001A68002042F001021A6070470120704735
:103BB00000207047002C014000040040704700BF07
:103BC000002866D010B590F83D30044603F0FF029F
:103BD000002B45D0022322682F4984F83D308A42C9
:103BE000136842D0B2F1804F11D0A1F594318A42CE
:103BF0000DD001F580618A4209D0A06923F08003CD
:103C00000343E16813606368D162936210E0A168C6
:103C100023F0700320690B4323F44073A16903432D
:103C200023F08003E0680B4361681360D062916207
:103C30000123536184F8463084F83E3084F83F30E5
:103C400084F8403084F8413084F8423084F84330BE
:103C500084F8443084F8453084F83D30002010BDAD
:103C600080F83C20FFF7AAFFB4E7A06823F07003B8
:103C70002169034323F440730B43A16923F08003BC
:103C80000B431360E368D3626368936263691363F1
:103C9000CEE70120704700BF002C014041BB90F8E7
:103CA0003E30012B38D1022380F83E3001220368D8
:103CB00001F01F01186A02FA01F120EA010010B4B4
:103CC00018621A6A214C1143A342196226D0B3F13B
:103CD000804F27D01E4A934224D002F5806293423F
:103CE00020D01A68002042F0010210BC1A60704710
:103CF00004291FD008290BD090F84130012B0BD19B
:103D000004291BD008291DD0022380F84130CDE7BB
:103D100090F84030012B15D0012070475A6C42F4C6
:103D200000425A649A6802F00702062AD9D100209C
:103D300010BC704790F83F30012BEDD1022380F882
:103D40003F30B3E7022380F84030AFE7002C01405A
:103D500000040040034690F83C00012800F0C080B9
:103D60000120F0B483F83C000C2A2DD8DFE802F0E3
:103D7000072C2C2C602C2C2C8D2C2C2C32001A680F
:103D80000E68106A20F001001062106A556894698C
:103D900020F0020024F0730434438E6830436A4EEE
:103DA000B24200F09F8055604D6894610C69556384
:103DB0001062906940F008009061906920F0040062
:103DC0009061916921439161002283F83C20104663
:103DD000F0BC70471A680E68106A20F480501062B8
:103DE000106A5568D46920F4005024F4E64444EA8B
:103DF00006248E6840EA0630534EB24200F08E80B0
:103E000055604D68D4610C6915641062D06940F446
:103E10000060D061D06920F48060D061D16941EA4E
:103E20000421D161002283F83C201046F0BC704789
:103E30001A680E68106A20F010001062106A556847
:103E4000946920F0200024F4E64444EA06248E68B5
:103E500040EA06103C4EB24251D055604D68946124
:103E60000C6995631062906940F4006090619069FC
:103E700020F480609061916941EA042191610022FF
:103E800083F83C201046F0BC70471A680E68106A30
:103E900020F480701062106A5568D46920F40070B4
:103EA00024F0730434438E6840EA0620264EB24262
:103EB0003AD055604D68D4610C69D5631062D06901
:103EC00040F00800D061D06920F00400D061D169D1
:103ED0002143D161002283F83C201046F0BC70479A
:103EE00002207047CE6820F00800304325F440756A
:103EF000D1E905673E4320F00400354353E7CE681F
:103F000020F0800040EA061025F44065D1E90567FD
:103F10003E4320F0400045EA86059EE74E6925F4C1
:103F2000804545EA86156BE7CE6820F4006040EADC
:103F3000062025F44055D1E905673E4320F4806012
:103F400045EA0615B5E700BF002C014090F83C207B
:103F5000012A75D030B4034601240222006883F898
:103F60003C4083F83D2084680A6824F47F4424F0B0
:103F70007704602A846065D031D8402A48D021D99E
:103F8000502A16D14C68CD68016A21F00A012143FC
:103F9000046A24F001040462826922F0F00242EA19
:103FA000051282610162826822F0700242F05702BB
:103FB00082600022012183F83C2083F83D101046E6
:103FC00030BC7047202A02D01ED9302AF1D1816836
:103FD00021F070010A4342F007028260E9E7702A8B
:103FE00049D0B2F5005FE4D1D1E9015284682A4397
:103FF000CD6824F47F4142EA05220A438260826848
:1040000042F480428260D4E732F01001D1D1DEE781
:104010004C68CD68016A21F00A012143046A24F04A
:1040200001040462826922F0F00242EA0512826110
:104030000162826822F0700242F047028260B8E7B3
:1040400002207047046ACA6824F010044D680462B4
:10405000816921F4704141EA0231026A816122F0F2
:10406000A00242EA05120262826822F0700242F067
:10407000670282609DE7D1E9015284682A43CD68D6
:1040800024F47F4142EA05220A438260826842F0BA
:10409000770282608DE700BF90F83C20012A4AD069
:1040A000034602224FF0010C006870B483F83CC054
:1040B00083F83D2082684C6822F070020D6822432C
:1040C00022F007022A43602C82604ED025D8402C73
:1040D00033D0502C10D18C680D69016A21F00A018F
:1040E0002143046A24F001040462826922F0F00290
:1040F00042EA05128261016200210124C26822F0B5
:104100004002C260C26822F48042C26083F83D402F
:1041100083F83C10084670BC7047702CECD1D1E994
:10412000025284682A430D6924F47F4142EA052241
:104130000A438260E0E702207047052D0DD0056A32
:10414000046A0E6924F001040462826922F0F0021C
:1041500042EA061282610562CEE7002283F83DC082
:1041600083F83C20604670BC7047046A0A6924F0FA
:1041700010048D680462816921F4704141EA0231C2
:10418000026A816122F0A00242EA05120262B3E7EC
:10419000704700BF704700BF704700BF704700BF47
:1041A000036810B51A690446910702D5DA689207C8
:1041B0005FD41A69500702D5DA68510746D41A69E4
:1041C000120702D5DA6810072ED41A69D20602D572
:1041D000DA68D00618D41A69D10702D5DA68D2078E
:1041E0005DD41A69100602D5DA6811065FD41A691F
:1041F000520602D5DA68500661D41A69910602D5D2
:10420000DA68920643D410BD6FF0100108221961DC
:104210002277DB69204613F4407F64D0FFF7BAFFB2
:10422000002223682277D6E76FF008010422196183
:104230002277DB692046990752D1FFF7A9FF204674
:10424000FFF7AAFF002223682277BEE76FF0040180
:104250000222196122779B69204613F4407F3CD1EA
:10426000FFF796FF2046FFF797FF0022236822778B
:10427000A5E76FF002010122196102779B699B0794
:1042800025D0FFF787FF00222368227791E76FF0A0
:1042900020022046BDE810401A6100F0F7B86FF028
:1042A000010220461A61FDF7BBF8236899E76FF019
:1042B000800220461A6100F0EBF8236897E76FF060
:1042C000400220461A61FFF769FF236895E7FFF770
:1042D0005FFF2046FFF760FFD5E7FFF75BFFC4E70E
:1042E000FFF758FFAEE7FFF753FF2046FFF754FFF5
:1042F00096E700BF002934D190F84230012B45D118
:104300000222036880F84220DA6842F00202DA6092
:104310000422D86810B440F08000D860186A01F018
:104320001F0102FA01F120EA010018621A6A274C03
:10433000114319625A6CA34242F400425A6427D0D6
:10434000B3F1804F24D0224A934221D002F58062FB
:1043500093421DD01A68002042F0010210BC1A607E
:10436000704704291CD008290CD090F84530012B47
:104370000CD1042918D008291FD00222036880F824
:104380004520C5E790F84430012B16D00120704736
:104390009A6802F00702062ADCD1002010BC7047A0
:1043A00090F84330012BF1D10222036880F84320BA
:1043B000DA6842F00402DA60AAE70222036880F8B1
:1043C0004420DA6842F00802DA60A1E7002C0140DC
:1043D0000004004090F83C20012A27D00346022028
:1043E0001A6830B483F83D0050680C68104D20F016
:1043F00070002043AA429468506009D0B2F1804F07
:1044000006D00C48824203D000F58060824204D17D
:10441000496824F080040C4394600022012183F851
:104420003C2083F83D10104630BC70470220704796
:10443000002C01400004004090F83C30012B23D0B8
:104440000246D1E902034FF0000C23F4407303430A
:10445000486823F480630343086823F4006303433C
:10446000086923F4805310B403434C6923F40053C8
:10447000C8692343116823F4804303434B6482F8E3
:104480003CC0604610BC704702207047704700BFB8
:10449000704700BF002864D0F8B590F83D3004465E
:1044A00003F0FF02002B54D0D4E902272421206915
:1044B00023680243606984F83D100243D868A66906
:1044C00020F40050D8601969274D21F44051394338
:1044D0001961D968AB4221F4B05121F00C0142EAD4
:1044E0000102DA605A6922F4407242EA06025A6115
:1044F00034D0FFF7A9FA626800EB8003920003EB67
:104500008303B3FBF2F3642600254FF0200C174819
:104510002168A0FB0372520906FB12331B013233E0
:10452000A0FB0303120102EB53138B600B692846B7
:1045300023F490430B614B6923F02A034B61CB6852
:1045400043F40053CB60256484F83DC084F83EC03A
:10455000F8BD80F83C20FDF719FFA5E7FFF784FAC6
:10456000C9E70120704700BF003801401F85EB51AB
:104570002DE9F8431D4690F83D30202B68D1884640
:10458000002940D01746002A3DD090F83C30044620
:10459000012B5DD0212301224FF0000980F83C203F
:1045A000C0F8409080F83D30FEF7E2F8A368064678
:1045B000B3F5805FA784E7844DD0002384F83C30B6
:1045C000E38C9BB2002B58D02368691C1ED11A685B
:1045D0001206FCD5B8F1000F35D018F8012B5A603F
:1045E000E28C013A92B2E284E28C92B2002AECD1DF
:1045F000681C36D11A685106FCD5202384F83D305A
:104600000020BDE8F8830120BDE8F8831A6817068A
:10461000E0D42DB1FEF7ACF8801B85422368D4D2DC
:1046200020210025DA68032022F4D072DA605A696A
:1046300022F001025A6184F83D1084F83C5084F85D
:104640003E10BDE8F88339F8022BC2F30802C6E732
:104650000220BDE8F8832369002BAED1C1469846FD
:10466000ABE71A685206C8D4002DD9D0FEF780F8FF
:10467000831B9D422368BBD2D2E72368B8E700BF03
:1046800090F83D30202B19D1B1B1AAB190F83C304F
:10469000012B13D000234FF0210C01620168C2846A
:1046A00080F83C30036480F83DC08284CA681846B4
:1046B00042F08002CA6070470120704702207047B4
:1046C000F8B5044690F83D0020282DD151B34AB3E7
:1046D00094F83C00012827D000254FF0010E4FF040
:1046E000210C606B114F124EE284A284256421627A
:1046F00084F83CE084F83DC013462268C0E90A769D
:104700000C4E043245630663FEF766FC6FF0400210
:10471000236828461A6084F83C505A6942F08002A7
:104720005A61F8BD0120F8BD0220F8BD65480008B7
:1047300095480008A948000890F83E30202B42D147
:10474000002942D0002A40D02DE9F04190F83C30B9
:104750000446012B82B03AD0002501264FF02208F2
:10476000816282851346806B0A46DFF884E0216807
:10477000DFF880C0204F266384F83C602564043154
:1047800084F83E80C0E90AECC0E90C75FEF724FC11
:10479000236801951A6801925A6884F83C50019286
:1047A000019ADA6842F48072DA605A6932435A61D7
:1047B0005A6942F040025A61226BB2420BD001208A
:1047C00002B0BDE8F081022070470120704702204E
:1047D00002B0BDE8F08100951A68284600925A6838
:1047E0000092009ADA6842F01002DA60E8E700BF4F
:1047F0005149000835490008A9480008036810B568
:10480000DA68044622F49072DA605A6922F00102F2
:104810005A61026B012A03D1DA6822F01002DA60D1
:104820005A6952060AD55A69A06B22F040025A61B1
:1048300020B100234363FEF717FC38B90023202280
:10484000E38584F83E201846236310BDA06BFEF775
:104850000BFD2028F2D110230320236410BD00BFDC
:10486000704700BF08B50368406A1B6813F0200357
:104870000AD10268C384536923F080035361D3686B
:1048800043F04003D36008BDFFF7EAFF08BD00BF57
:10489000704700BF08B5406AFFF7FAFF08BD00BFC8
:1048A000704700BF704700BF08B5406A0368596988
:1048B00090F83D20212A0BD0596990F83E20222AF9
:1048C00016D0036C43F010030364FCF7CBFE08BD65
:1048D0000906F1D500222021C284DA6822F0C00244
:1048E000DA6080F83D10596990F83E20222AE8D11C
:1048F0004A06E6D50022C285DA6822F49072DA60B0
:104900005A6922F001025A61026B012A03D1DA6866
:1049100022F01002DA602022002380F83E20036398
:10492000CFE700BF08B50023406AC385C384FCF706
:1049300099FE08BD406A08B5036B012B02D0FFF752
:10494000B1FF08BD818D4908FCF7A6FE08BD00BF78
:1049500008B50368406A1B6813F0200313D12021B7
:104960000268C385D36823F48073D360536923F04E
:1049700001035361536923F04003536180F83E10F3
:10498000036B012B09D0036B012B02D0FFF788FFCB
:1049900008BD818DFCF780FE08BDD36823F01003AD
:1049A000D360F0E78368B3F5805F3BD0826A002B69
:1049B00030D003685B6803F07F031370836A0133B0
:1049C0008362C38D013B9BB2C38553BB4FF0200C68
:1049D000026800B5D16883B021F02001D160D168B0
:1049E00021F48071D160516921F00101516180F899
:1049F0003EC0016B012920D10363D16821F0100171
:104A0000D1601168C90622D4818DFCF745FE03B040
:104A10005DF804FB0369002BCBD103685B6813705E
:104A2000CCE7704703696BB90268836A5268C2F3C6
:104A3000080223F8022B8362C3E7FFF731FF03B0BC
:104A40005DF804FB0368826A5B681370B6E7019344
:104A50001368019353680193019BD5E730B5036850
:104A600004461A6883B012F00F0FD9685D694ED101
:104A7000950602D58D0600F19080206B01280BD0A1
:104A8000100602D50D0600F19280500602D54A06A6
:104A900000F1AB8003B030BDD006F1D5CD06EFD527
:104AA000002101911A6801925A680192019A5A698B
:104AB00012F0400200F0D280A06B0268526892B2FD
:104AC000002AE7D0A58D9542E4D9E2858269202AA3
:104AD00016D0DA6822F48072DA605A6922F0010294
:104AE0005A615A6922F040025A61202284F83E201D
:104AF0002163DA6822F01002DA60FEF7B5FAA58DBC
:104B0000E18D2046691A89B2FCF7C6FDC2E705F0BF
:104B1000010501F490702843AFD0D00705D5C80532
:104B200003D5206C40F001002064500730D54DB112
:104B3000206C40F002002064900703D5206C40F008
:104B400004002064100707D501F02000284303D09B
:104B5000206C40F008002064206C00289AD0900659
:104B600009D58A0607D594F83E20222A03D120468B
:104B7000FFF718FF23685A69256C02F0400205F020
:104B8000080515433CD12046FCF76CFD256481E700
:104B90009007D7D5002DD1D1D4E790F83E30222B05
:104BA0007FF478AF03B0BDE83040FFF7FBBE94F868
:104BB0003D20212A7FF46EAFA268B2F5805F6ED0EF
:104BC000226A511C216212785A60E28C013A92B238
:104BD000E284002A7FF45EAFDA6822F08002DA60B5
:104BE000DA6842F04002DA6054E72021DA682046B1
:104BF00022F04002DA6084F83D10FFF731FE49E709
:104C0000DA6822F49072DA605A6922F001025A617D
:104C1000226B012A03D1DA6822F01002DA60002246
:104C2000202184F83E1022635A69550612D55A692C
:104C3000A06B22F040025A6160B11E4B4363FEF745
:104C400035FA00283FF426AFA06B436B03B0BDE8F4
:104C5000304018472046FCF705FD1BE7E08DE18D4D
:104C600080B289B200293FF415AFA18D081A81B234
:104C700000293FF40FAF2025D86820F49070D86049
:104C8000586920F00100586184F83E502263DA68C8
:104C9000204622F01002DA60FCF7FEFCFAE62269F8
:104CA000002A8DD1226A32F8021BC1F30801596033
:104CB00022628AE725490008014B1868704700BF47
:104CC0005800002070B500260C4D0D4C641BA4103C
:104CD000A64209D104F0A8F800260A4D0A4C641B2C
:104CE000A410A64205D170BD55F8043B9847013683
:104CF000EEE755F8043B98470136F2E74C9400087C
:104D00004C9400084C9400085094000838B50B4BA4
:104D100004461D68EB6B53B9242000F007F90246E6
:104D2000E86320B93221064B064801F005FA204617
:104D3000E96BBDE8384000F007B800BF580000201C
:104D4000588F00086F8F00082DE9F0410C4680460F
:104D500002F096FA21460546404602F095FA43696C
:104D60000446990703F26C7705D1642297FBF2F3AE
:104D700002FB137373BB4FF4C87397FBF3F603FB8B
:104D80001676B6FA86F35B093022664E02FB03669E
:104D900000F07EFF00F088FF634B1B684BB36B682D
:104DA000BB4219D1D8E90023D5E908012F68DFB942
:104DB000824273EB010123DAD5E91201824273EBDF
:104DC0000107B4BF0127002782428B41276219DB0C
:104DD000AB6A18E00123D7E7384600F0AFFE0028A1
:104DE000E0D14FF0FF3304E0824273EB010102DABD
:104DF00000232362ECE7D5E9120182428B41F7DA06
:104E0000012323622B6D4FF4616293FBF2F53C208A
:104E100002FB153393FBF0F200FB1230616823684C
:104E2000891AA2681B1A521B3B2B23606160A26087
:104E300034DD013161603C3B236063683B2B33DD33
:104E40000132A2603C3B6360A368172B32DDE2694C
:104E5000183B0132E261A269A3600132062AC8BF91
:104E60000022A261E26823690132E26056F8231051
:104E70008A420EDD0B2BA2EB0102E26003F101027C
:104E800005BF002263692261013302BF22616361B1
:104E9000E26100F003FF2046BDE8F081002BCCDA90
:104EA000013961603C33C7E7002BCDDA013AA260DB
:104EB0003C33C8E7002BECDAE2691833013AE261CF
:104EC000A269A360013A48BF0622A261E268013AE2
:104ED000E260002ADDD12369013B05D42361236907
:104EE00056F82330E360D4E70B23236163695A1E2D
:104EF00003F26B7362619A0705D1642193FBF1F2AF
:104F000001FB123262B94FF4C87293FBF2F102FB5B
:104F10001133B3FA83F35B0903F5B673E361DEE79C
:104F20000123F9E7CC8F0008D4140020024B01467E
:104F3000186800F089B800BF58000020024B0146F5
:104F4000186800F019B800BF580000200A449142C8
:104F500000F1FF3300D1704710B511F8014B9142B9
:104F600003F8014FF9D110BD03460244934200D12A
:104F7000704703F8011BF9E738B50546002940D012
:104F800051F8043C0C1F002BB8BFE41802F0A6FA3D
:104F90001C4A136833B9636014602846BDE8384082
:104FA00002F0A2BAA34208D9206821188B4201BF9F
:104FB00019685B6809182160EDE71A465B680BB158
:104FC000A342FAD911685018A0420BD120680144BD
:104FD000501883421160E0D118685B680144116089
:104FE0005360DAE702D90C232B60D6E7206821183A
:104FF0008B4201BF19685B680918216063605460C7
:10500000CBE738BDB014002070B50E4E0C463168A9
:10501000054611B900F062FD30602146284600F0D7
:105020005DFD431C0AD0C41C24F00304A04207D039
:10503000211A284600F052FD013001D14FF0FF3413
:10504000204670BDB41400202DE9F041CD1C25F0A0
:10505000030508350C2D38BF0C25002D074601DB54
:10506000A94205D90C2300263B603046BDE8F081FB
:105070002E4E02F033FA33681C4634BB29463846BC
:10508000FFF7C2FF431C04464DD134682646002E6C
:1050900040D123683146384604EB030800F01EFD7A
:1050A00080453AD1216803356D1A25F0030508358E
:1050B0000C2D38BF0C2538462946FFF7A5FF0130D7
:1050C0002BD023682B4423600EE02268521B1ED491
:1050D0000B2A16D96119A342256018BF596063686D
:1050E00008BF316062514B60384604F10B0602F094
:1050F000FBF926F00706231DF21AB6D09B1BA3501E
:10510000B3E76268A3420CBF32605A60ECE7234603
:105110006468B2E734467668B9E70C2338463B60EA
:1051200002F0E2F9A1E72560DEE700BFB01400203D
:10513000002B2DE9F0471F46BBBF03F100431F467C
:1051400000232D2388B01446129A109D1370149BCF
:10515000DDF84CA023F02008B8F1460F05D0B8F1D7
:10516000450F00D10135022300E0032307AA049272
:1051700006AACDE902A2CDE9003522463B4601F060
:1051800087F8B8F1470F064602D1119BDB0722D5FD
:10519000B8F1460F06EB050910D13378302B0AD150
:1051A0000022002320463946FBF7BCFC18B9C5F1A4
:1051B0000105CAF80050DAF80030994400220023B3
:1051C00020463946FBF7AEFC08B1CDF81C903022E2
:1051D000079B4B4507D33046079B159A9B1B1360D3
:1051E00008B0BDE8F087591C07911A70F0E7034634
:1051F000F7B5002903F8022BB6BF2D222B22494216
:10520000092942702BDD0DF10704A4460A2791FB02
:10521000F7F60A46A64607FB1615632A05F1300580
:10522000314604F1FF340EF8015CF0DC3031AEF1B0
:10523000020504F8011C2946441C61450AD30DF1FE
:105240000902A2EB0E02654588BF00221344181A1A
:1052500003B0F0BD11F8012B04F8012FEDE7302366
:1052600030318370C170031DF1E700002DE9F04F6C
:1052700091B00C46DDF8688016461F46054602F0E0
:10528000B1F8036818460993FAF762FF00230E93FA
:10529000D8F800300A90073323F0070303F108021F
:1052A00094F81890D4F800B0C8F80020D3E900238F
:1052B000C4E91223D4E9128A2AF000430B934FF079
:1052C000FF3240469C4B0B99FBF75EFC70BB4FF0E6
:1052D000FF324046984B0B99FBF738FC30BB00225D
:1052E000002340465146FBF727FC10B12D2384F8DC
:1052F0004330924B9248B9F1470F94BF984680468D
:1053000003234FF0000A23612BF00403236033468C
:105310002146284600970FAA00F0D4F9013040F04A
:1053200090804FF0FF3011B0BDE8F08F42465346F9
:1053300040465146FBF728FC48B1BAF1000FB8BF10
:105340002D238048B8BF84F843307F4BD3E7636890
:1053500009F0DF015A1C42D1062363600022069245
:105360000EAACDE904920DAA4BF4806303920DF1CD
:105370003302CDE901322360636842460093284638
:1053800053460B91FFF7D4FE0B99804647290D99A0
:1053900008D1C81C02DB6368994240DDA9F102090B
:1053A0005FFA89F9B9F1650F1FD84A46013904F14E
:1053B00050000D91FFF71BFF0E9A82461318012A29
:1053C000236102DC2268D20701D5013323619DF8F5
:1053D0003330002B9BD02D2384F8433097E74729A7
:1053E000BCD1002BBAD10123B7E7B9F1660F18D1B0
:1053F000002963680BDD216113B92268D00702D54B
:1054000001330B4423614FF0000AA165DFE713B9B4
:105410002268D20701D50233F4E70123F2E74FF007
:1054200067090E9B994205DB23682161D807EAD5FD
:105430004B1CE7E70029CCBF0122C1F10202134453
:10544000E0E723685A0507D42369424631462846D7
:10545000B84701302BD164E7B9F1650F40F2DD8028
:10546000D4E9120100220023FBF75CFB002833D0B3
:10547000012331462846354AB84701303FF451AF41
:10548000DDE90D239A4202DB2368D8070FD5DDE959
:10549000092331462846B84701303FF442AF4FF068
:1054A000000804F11A090E9B013B434509DC2368FF
:1054B0009B0700F10281E0680F9B9842B8BF184635
:1054C00031E701234A4631462846B84701303FF4C8
:1054D00028AF08F10108E6E70D9B002B38DC01231B
:1054E00031462846194AB84701303FF41AAFDDE982
:1054F0000D23134302D12368D907D8D5DDE9092349
:1055000031462846B84701303FF40BAF4FF0000951
:1055100004F11A0A0D9B5B424B4501DC0E9B94E79C
:105520000123524631462846B84701303FF4F9AED0
:1055300009F10109EEE700BFFFFFEF7F2C900008A3
:105540003090000838900008349000082C9400082F
:105550000E9AA36D9A42A8BF1A46002A914637DCDC
:105560004FF0000B29EAE97904F11A02D4F858A0A7
:10557000AAEB09035B4533DCDDE90D239A423BDBF3
:105580002368DA0738D40E9B0D99A3EB0A02A3EB2C
:1055900001099145A8BF9146B9F1000F34DC4FF0E5
:1055A000000829EAE97904F11A0ADDE90D239B1ABA
:1055B000A3EB090343457FF77AAF012352463146F7
:1055C0002846B84701303FF4ACAE08F10108ECE7DB
:1055D0001346314642462846B8470130C0D1A0E6BE
:1055E0000123314628460B92B84701303FF499AE6B
:1055F0000B9A0BF1010BB9E73146DDE90923284687
:10560000B8470130BFD18CE64B463146284608EBFF
:105610000A02B8470130C2D183E60E9A012A01DCA2
:10562000DB0737D50123424631462846B8470130CB
:105630003FF477AEDDE9092331462846B84701300B
:105640003FF46FAED4E9120100220023FBF76AFA9F
:10565000D8B90E9B08F10102013B31462846B847F4
:1056600001300ED15DE601234A4631462846B8474F
:1056700001303FF456AE08F101080E9B013B434553
:10568000F1DC534604F15002E0E64FF0000804F16B
:105690001A09F2E701234246DFE701234A46314671
:1056A0002846B84701303FF43CAE08F10108E368F2
:1056B0000F995B1A4345F0DCFDE64FF0000804F15A
:1056C0001909F4E72DE9F047164699468A680B69EF
:1056D00007469342B8BF1346336091F843200C4607
:1056E000DDF820800AB1013333602368990642BF98
:1056F000336802333360256815F0060506D104F1DE
:10570000190AE36832689B1AAB4228DC94F84320FC
:10571000131E226818BF012392062DD4494638462D
:1057200004F14302C047013020D02368E56803F04C
:105730000603042B18BF002532684FF00006A3684B
:1057400008BFAD1A226908BF25EAE5759342C4BFB8
:105750009B1AED181A34B5421AD1002008E0012333
:10576000524649463846C047013003D14FF0FF301A
:10577000BDE8F0870135C4E73020E11881F8430027
:105780005A1C94F845102244023382F84310C5E7AE
:105790000123224649463846C0470130E6D001364B
:1057A000D9E700002DE9FF470F7E9146782F80460C
:1057B0000C469A460C9D01F1430207D8622F0AD885
:1057C000002F00F0D980582F00F0A48004F142058A
:1057D00084F842703AE0A7F16303152BF6D801A1D3
:1057E00051F823F03D58000851580008CD570008E3
:1057F000CD570008CD570008CD5700085158000874
:10580000CD570008CD570008CD570008CD570008E8
:105810005F5900088158000841590008CD57000819
:10582000CD57000881590008CD570008815800085D
:10583000CD570008CD570008495900082B681A1D9C
:105840001B682A6004F1420584F842300123A4E079
:1058500020682968060601F104030AD50E682B604A
:10586000002E03DA2D23764284F843300A235E4863
:1058700019E00E6810F0400F2B6018BF36B2EFE74A
:105880002B682068191D2960010601D51E6802E0F9
:105890004606FBD51E886F2F0CBF08230A235248EB
:1058A000002184F843106568002DA8BF2168A56019
:1058B000A4BF21F0040121600EB9002D4DD0154682
:1058C000B6FBF3F103FB1167C75D05F8017D3746B1
:1058D000BB420E46F4D9082B0BD12368DE0708D54E
:1058E000236961689942DEBF302305F8013C05F168
:1058F000FF35521B22614B4621464046CDF800A0A1
:1059000003AAFFF7DFFE01304CD14FF0FF3004B0A7
:10591000BDE8F087344881F845702968236851F85C
:10592000046B29601D0614D5DF0744BF43F0200334
:1059300023601EB9236823F0200323601023AFE700
:10594000236843F0200323607823284884F84530F7
:10595000E3E7590648BFB6B2E6E71546BBE72B6852
:105960002668181D6169286035061B6801D5196015
:1059700002E07006FBD51980002315462361BAE7C3
:105980002B6800211A1D2A601D686268284601F0F4
:1059900097FD08B1401B606063682361002384F8B1
:1059A0004330A8E72A46494640462369D04701309C
:1059B000ABD023689B0713D4E068039B9842B8BF21
:1059C0001846A4E70123324649464046D0470130F5
:1059D0009BD00135E36803995B1AAB42F2DCEBE73D
:1059E000002504F11906F5E73C9000084D900008E9
:1059F00070B50E46054618B183690BB901F04CFB32
:105A0000AB69AC6813B9284601F046FB2C4B9C42AD
:105A100020D16C68636EDB0705D4A389980502D496
:105A2000A06D01F0E5FCA38919071DD52369DBB141
:105A3000013EA36816F8011F013BA36039BB002B90
:105A400038DA22460A21284600F0B6FA013011D091
:105A50000A2511E01B4B9C4201D1AC68DAE71A4BD6
:105A60009C4208BFEC68D5E72146284600F0F6FACC
:105A70000028DDD04FF0FF35636EDA0705D4A38927
:105A80009B0502D4A06D01F0B5FC284670BD002B2B
:105A900004DAA2699A4206DC0A2904D023685A1C57
:105AA00022601970C5E72246284600F085FA0130C9
:105AB000BFD1DFE70A2523685A1C22601D70DBE78F
:105AC000709100089091000850910008024B014627
:105AD0001868FFF78DBF00BF5800002038B50023BD
